:020000041000EA
:1030000000200420F7300010C3300010C53000103D
:10301000C1300010C1300010C1300010C1300010AC
:10302000C1300010C1300010C1300010C730001096
:10303000C1300010C1300010C9300010CB3000107A
:10304000CD300010CD300010CD300010CD3000104C
:10305000CD300010CD300010CD300010CD3000103C
:10306000CD300010CD300010CD300010CD3000102C
:10307000CD300010CD300010CD300010CD3000101C
:10308000CD300010CD300010CD300010CD3000100C
:10309000CD300010CD300010CD300010CD300010FC
:1030A000CD300010CD300010CD300010CD300010EC
:1030B000CD300010CD300010CD300010CD300010DC
:1030C00000BE00BE00BE00BE00BE00BEEFF3058025
:1030D000103800BEF2EB887104E8001024E80010FC
:1030E0003431001090A31AE700201F49086006C879
:1030F00081F3088810471D48006800282FD10DA4CF
:103100000ECC002902D000F012F8F9E71849194A4C
:10311000002000E001C19142FCD1174988471749BE
:1031200088471749884700BEFDE701C901C29A4296
:10313000FBD3704724E80010C0000220FC0B0220E3
:1031400060F30010000004200000042060F3001071
:1031500000100420001004200000000070470948FF
:1031600003F0EEF90047000008ED00E0000000D099
:10317000000C02201C3802208D4D00100D33001071
:10318000B54E00105756000006005250ABB36053C6
:1031900028DE001006005250861C030238DE0010A4
:1031A000060052505422A29D60DE001005005250CD
:1031B000DE65F46860F30010F8B5C04610B5064C43
:1031C0002378002B07D1054B002B02D0044800E0E8
:1031D00000BF0123237010BDC80F022000000000B3
:1031E000E0D40010044B10B5002B03D00349044871
:1031F00000E000BF10BDC04600000000CC0F022060
:10320000E0D4001010B5024B1B68984710BDC046B3
:103210009CF2FF1010B5024B1B68984710BDC046CA
:10322000A0F3FF1010B5024B1B68984710BDC046B5
:1032300048F3FF1010B5024B1B68984710BDC046FD
:103240004CF3FF1010B5024B1B68984710BDC046E9
:1032500058F3FF1010B5024B1B68984710BDC046CD
:1032600064F3FF1010B5024B1B68984710BDC046B1
:1032700068F3FF1010B5024B1B68984710BDC0469D
:103280006CF3FF1070B51E4B05681E4E04001B68E2
:1032900030222800316898470523E360EB602368FB
:1032A0002B603368002B02D01B682B603368164AF2
:1032B00011680A000C32DA602A79002A06D0104B15
:1032C000302220001B682168984770BD0620E86006
:1032D000207A022811D003242C72012809D002D9A7
:1032E0000222042800D12A721B682B601223EB6093
:1032F000EBE76429F8DD2A72F6E701222A72F3E788
:103300009CF2FF101437022008370220F0B5DE4689
:10331000574645464E460023E0B59A46F04B9BB0D3
:103320001B689847EF4C60C8236830209847EE4BE5
:10333000EE4F1860236830209847ED4BED49186038
:103340009846E94B1F221B680360019353460371A3
:10335000023303722633C3601030FFF753FFE64B8E
:103360000AAA13CB13C213CB13C21968E34C116022
:103370009988E34891809B7993710A22E14BE2504E
:103380003B689847E0483B689847DD483B6898476A
:10339000DE4BDF481B68002B00D1DE483B689847B6
:1033A0003B68D7489847012D00D1A4E2DA4F7068F6
:1033B0003B689847CD4B01001B680990D748984758
:1033C00012AB9B46032D08D13B68B0689847FA21A1
:1033D0008900FFF73FFFD24B1860C44DC8482B68E7
:1033E00098472B68099DCF4829009847CE4BCF4A74
:1033F0009B6A1360002D00DC8AE201230893CC4B0A
:10340000CC4F0493CC4BDA469946CB46B946CB4BCE
:10341000CB4E05934123049A13705A46403B1360E8
:10342000059A413313705346C64A23CA23C323CA9D
:1034300023C3116819609188998092799A710AABB7
:103440009B78592B00D145E2BF4B51461B680AA817
:1034500098475A46431E0343DB0F49461360072231
:1034600007230A624B62082391328B50CC22D20090
:10347000A350B64AA350A34AA3580133A350B02384
:1034800007225B01E2500523336043461868FFF7CB
:10349000F9FE059B1A78402A00D81CE23368002107
:1034A0000393049B01251F780023BC46032001934E
:1034B00002914133069707960133DBB293421DD840
:1034C0000021432B03D143218C4642390191A9426B
:1034D000F2D151469E480133E0C8E0C1E0C8E0C1E6
:1034E0000568DBB20D6085888D8080790025887144
:1034F00001210898029103909342E1D9019B069F14
:10350000079E002B03D062466746049B1A70029BFD
:10351000002B01D0039B336043001B1818000721C8
:103520000193FFF797FE0300019AD01FC200101A03
:10353000C01A412F02D1326809339B1A089A09999F
:10354000013208928A4200DC64E74F46D946D346EE
:10355000AA4602930390744B7E4A9B6A634D1360A4
:103560007D482B68984766482B6898477B482B68AE
:10357000984763482B689847316879482B68984783
:10358000784E052130002B6898474B4676481968DD
:103590002B689847012130002B689847049B73489B
:1035A00019782B689847724B4121994618002B686F
:1035B0009847059B6F4819782B68984748464221E1
:1035C0002B689847396A6C482B6898470721300068
:1035D0002B6898474B4B6948E1582B6898476848D7
:1035E0002B68984767482B6898474346664C1B688A
:1035F000200019682B68984764482B689847434611
:10360000634F1B68380019792B68984700213000F8
:103610002B68984743461B685E48197A2B68984781
:10362000022130002B68984743461B685A48D968E6
:103630002B689847112130002B689847434619683A
:10364000564B1031180098462B689847544B180079
:1036500099462B68984753482B689847224B20007F
:103660001B6819682B6898474F482B6898471E4B72
:1036700038001B68019319792B68984700213000A6
:103680002B689847184B43481B680193197A2B689D
:103690009847012130002B689847134B3E481B6820
:1036A000D9682B689847122130002B6898470E4B39
:1036B000404619682B681031984748462B68984750
:1036C00002993A482B689847052130002B689847A3
:1036D000039937482B6898470D2130002B6869E023
:1036E00028F2FF1080F0FF1010370220A4F0FF1026
:1036F00014370220E0D40010C4DA0010E40F0220D6
:103700005CD700105C06000000D5001018370220BE
:1037100030D500105CD5001090F1FF10C8D5001016
:10372000FC360220DCD5001000400540F4360220B3
:1037300014380220000C0220F8360220153802202E
:1037400008370220E4DA0010B0F1FF106406000030
:1037500004DB0010043702200CD600101CD6001029
:1037600054D6001070D600108CD60010A8D60010C9
:10377000C4D60010E0D60010FCD6001018D70010F8
:1037800034D7001060D700106CD7001088D7001015
:10379000BCD70010D8D70010F4D7001010D80010F4
:1037A0002CD8001064D8001078D80010B8D80010B9
:1037B000D4D80010984707215A482B68984707210A
:1037C00030002B689847514657482B68984701218D
:1037D00030002B6898470AA954482B6898475448EA
:1037E0002B689847594653482B68984752482B688E
:1037F000984752482B689847514B1868514B1B68A3
:10380000C01A514B186000286BDDFFF713FD80468E
:103810000998FFF70FFD4D49FFF704FD4C4B041CC1
:1038200040469946FFF71EFD00224A4B03F04DF932
:103830000600201C0F00FFF715FD02000B003000F2
:10384000390003F024F9FFF715FD4B464146186097
:10385000201CFFF7F7FC404E2B6830603F4898472C
:103860004B461868FFF7FEFC3D4C02000B002000A1
:10387000296888472B683B4898473068FFF7F2FC77
:1038800002000B002000296888472C482B689847C5
:10389000354C2168002915D02B68344898473449A5
:1038A0003068FFF7CFFC061C2068FFF7C3FC011C43
:1038B000301CFFF7C7FCFFF7D5FC02000B002D48BA
:1038C0002968884700201BB0F0BCBB46B246A94619
:1038D000A046F0BDFEE7049B0D201F7801250123C3
:1038E00027E62B68244898472B68244898472B687C
:1038F00012489847E6E7224B22481B68984712ABCC
:10390000190021489B4604F0FDFC129B099364E5D5
:103910001E4B1F4F04931F4B1F4E99461F4B059381
:1039200019E6C046F0D800100CD9001028D90010B4
:1039300044D900107CD9001098D900105CD7001031
:1039400004370220F43602201C3702200024744978
:103950000C37022080842E410037022028DA001024
:1039600058DA001060DA0010FC36022090DA0010FD
:1039700000A0DB44A4DA0010D0D9001008DA00104F
:10398000A4F0FF108CD50010C4D50010143802200C
:10399000000C0220F83602200837022015380220D9
:1039A000024B18688007C00F7047C04600C0064031
:1039B00070B5EFF3108C72B60D4D2B68002BFCD058
:1039C000BFF35F8F0724CB08C618C05C01230C40EF
:1039D000A3401C000440034207D103433370BFF3EC
:1039E0005F8F2C608CF3108870BD100001F080FA9E
:1039F0002C0100D00021044B044ABFF35F8F02C3A7
:103A00009342FAD17047C046000100D0800100D037
:103A1000044A1078431CDBB2172B00D91023137013
:103A20007047C0469801022001238340002904D03A
:103A3000034A1360034A13607047034A1360FBE7AD
:103A400080E200E000E100E080E100E0024B1030A5
:103A50009B688000C058704700ED00E070B50D0015
:103A6000EFF3108672B60F4A1368002BFCD0BFF339
:103A70005F8F0D4B10309B6884001B590B4A93429B
:103A800003D09D4201D001F04BFA074B9B681D51BA
:103A9000BFF35F8FBFF35F8F0022024B1A6086F384
:103AA000108870BD240100D000ED00E0CD30001082
:103AB000F0B5DE4657464E464546E0B50C0083B0AD
:103AC000EFF3108972B6584A1368002BFCD0BFF38D
:103AD0005F8F564B9A68030010339F00D559544AA4
:103AE0009046954232D0A54243D0524EAA1B2F2A6F
:103AF0002CD801228240924651464F4A126811400A
:103B0000019151464D4A1160BFF35F8FEFF305827B
:103B10009346002A33D101232A009A4393689C429A
:103B200008D177E04B005B189B00F3189968A1421D
:103B30002AD01A00062151560029F3DA019B002BE6
:103B400019D052463E4B1A603B4B1A60374B9B686C
:103B5000DD51BFF35F8FBFF35F8F0022324B1A60DE
:103B600089F3108803B0F0BCBB46B246A946A04614
:103B7000F0BD1500EAE75246304B1A60E6E7934283
:103B8000C9D001F0CDF9C6E706215956002921DB3D
:103B90004A005018800034188046A0689860E07988
:103BA000D871062020569871002824DBA488F01ACA
:103BB0006405241544440019E0240005400D240246
:103BC0002043988052181F4B9200B6181A7819702B
:103BD000B271B3E7594600290FD1FF3191711A49EB
:103BE000918018490A789A71184A9B1B5B415A4385
:103BF000120D0A70A2E71648E3E7164A1649D21AD0
:103C0000083A5002400D01439980144952080A4372
:103C1000DA8093E70621515613000029B8DA5A4694
:103C2000002AEAD14546DCE7240100D000ED00E09F
:103C3000CD3000109C01022000E100E080E100E0B6
:103C400080E200E01738022001BDFFFFAAAA0000B1
:103C500001BD0000D601022000F0FFFF00F8FFFFC9
:103C600070B5EFF3058101240443EFF3108C72B6B5
:103C7000214A1368002BFCD0BFF35F8F1F4B050058
:103C80001F4AED1A6D416A43120D1E4D8900AE6840
:103C900052B27658A6421CD00621595691421CD0E9
:103CA00012215956914222D01E215956914220D0BC
:103CB0002A2159560324914210D0134B19781A70B7
:103CC0008171BFF35F8F00220B4B1A608CF3108859
:103CD00070BDAB680D4C5C50EFE700246100091922
:103CE00089005B18FF21997109499980E5E7012452
:103CF000F4E70224F2E7C046240100D09C01022030
:103D0000AAAA000000ED00E017380220CD30001014
:103D100001BDFFFF054B064A1360064A136053605E
:103D20009360D3601361536193617047808080809A
:103D300000E400E004E400E0024B9C46614489009A
:103D4000016070474000003410B50400FFF760FECA
:103D500001002000FFF7F0FFFF232371BFF35F8F07
:103D600010BDC04610B50400FFF752FE0100200050
:103D7000FFF7E2FFFF23A380BFF35F8F10BDC046B4
:103D800083680B4810B584466144624409011201FE
:103D90009A18591854684B6801209C4201D802D0E7
:103DA0000020C0B210BD12680B689A42F9D8F7E73C
:103DB000FFFFFF0F0A4B1968EFF3108072B60A6815
:103DC000002AFCD0BFF35F8F1B68BFF35F8F002218
:103DD0001A6080F3108840BF002000217047C04661
:103DE00000380220F8B557464E464546DE46E0B557
:103DF00099460CAB1C780DAB1B78060090469A4692
:103E00000768002C11D1BC7B002C42D065003B68B8
:103E10002D19033D59194B78BB73002B00D1FB734F
:103E200000238B704B700B7004E065003B682D190C
:103E3000033D5919B2682A4B94464246E3181B01C8
:103E400063441A604A465A600A9A9A600B9ADA608A
:103E500000238B704B700B707B7B9B46002B2BD011
:103E600022005946B8687B6898473A68002816D0FF
:103E70005B4658465B005B445519033BA870D1185C
:103E8000D35C002B00D06B705B460C707B73A3453A
:103E900013D0F0BCBB46B246A946A046F8BD5B466F
:103EA0005B005B44033BD3189C705119525D002AA0
:103EB00000D05A705B460B707C7342464B46307D97
:103EC00000F02EFB051E06D05346002B03D1210027
:103ED000306800F049FD0E9B002BDAD01D70D8E74A
:103EE000FFFFFF0FF0B5DE4657464E46454600231E
:103EF000E0B58BB00893674B8200D45800239B46F3
:103F0000099000F093FA626806000F00EFF3108545
:103F100072B61368002BFCD0BFF35F8F23689C46FA
:103F20005B7B9946002B00D169E0A2685A4B904612
:103F30004B441B01984443461A685B681000190003
:103F4000801BB941002900DC63E0099800F0E8FA21
:103F500000230022984600230692079300239A46E6
:103F60006368BFF35F8F5A461A6085F31088534623
:103F7000002B08D10028C4D10BB0F0BCBB46B24620
:103F8000A946A046F0BD089B414618024B4618437F
:103F9000D047626806000F00EFF3108572B6136811
:103FA000002BFCD0BFF35F8F002F50DB33003B436F
:103FB00002D02369002B61D12368D97B002907D067
:103FC0004A00521819688C4649466244033A5170B7
:103FD0009A7B002A01D14A469A734A46DA734B46C5
:103FE000E168013BCA5C0132CA545B4623616368E5
:103FF000BFF35F8F5A461A6085F3108881E700236C
:1040000000229846002306920793002300209A4638
:10401000A6E7002902D1002800D096E700216046DB
:1040200000F020FC43461A685B68069207934346FB
:104030009B689A464346DB689846E3684B44013BDD
:104040001B7808931B0203432361002088E7236940
:10405000002BB1D0069A079B921BBB41002B15DBAE
:10406000594604910121039149460291414601912B
:10407000514620000091FFF7B5FEB6E700F0D6F9F3
:1040800032003B0012184B41002BE9DA0122034BAE
:104090005242E5E7EC370220FFFFFF0FFFFFFF7FF3
:1040A00010B5144C6368002B04D00A211248FFF7A6
:1040B00043FE10BD2300114A1021206800F0ECFAE5
:1040C000032000F0A7F9032000F094FA03200C4924
:1040D00000F0E0F9FFF79CFC0A4B9C460323237594
:1040E000D0231B061B6860446375074B800060602B
:1040F000DC60DAE7E401022000380220813D001094
:10410000E53E001040000034EC370220F0B54E468A
:104110004546DE465746E0B585B0019310AB1B78A7
:104120000600039300239946984600927268EFF3C5
:10413000108B72B61368002BFCD0BFF35F8F35680D
:10414000AC7B002C3DD067002B683F19033FDB1987
:104150005A78AA73002A00D1EA73B168474A8C469C
:1041600000980199A21812016244106051600E99E2
:1041700091600F99D16042469A705A701A706B7BA9
:104180009A46002B67D022001900A8686B689847F0
:104190002A68002852D0534650465B005344D71932
:1041A000033BB870D118D35C002B00D07B70534612
:1041B0000C706B7354454FD0F3681B19013B187892
:1041C00000E000207368BFF35F8F42461A608BF3F4
:1041D0001088002C4FD04B46002B08D10002204302
:1041E00005B0F0BCBB46B246A946A046F0BD039B55
:1041F000002B3ED00E9B00200F999847030004002F
:104200000D000B4335D000290ADA009A019B121BDE
:10421000AB4100920193002B0ADB039B994685E793
:1042200000F004F924184D4100940195002DF4DAB2
:104230000123134C5B4200930194EEE753465B006D
:104240005344033BD3189C70D119D25D002A00D08F
:104250005A7053460B706C73307D009A019B00F0CE
:104260005FF981460028A7D02100306800F07CFB70
:10427000A2E70020B4E701204042B1E7FFFFFF0FB3
:10428000FFFFFF7FF0B5EFF30583CE46474680B5CD
:1042900005000C0085B0002B12D02C4A0020536A78
:1042A0009C4203D8926A0130AA4204D305B0C0BC34
:1042B000B946B046F0BDE01A421E9041C0B2F5E7E3
:1042C000234E02930193234B0200009330000B0016
:1042D000FFF71CFF031EE0DD20BF7168EFF31087BE
:1042E00072B60A68002AFCD0BFF35F8FDAB2944638
:1042F0003068427B62451DD0FF221A40510089463A
:104300000168914488464946414403398978002927
:1043100013D0F1681B0A88464244013A1278DBB296
:104320009A420FD07368BFF35F8F00221A6087F341
:104330001088B2E7FF221A40EBE732699342F1D1CD
:104340003161EFE7614600F00FFBEBE7004005400D
:10435000E4010220B53D0010F0B5EFF30582D6462A
:104360004F4646461000C0B51038EFF3108872B6BD
:10437000214C2368002BFCD0BFF35F8F0123190071
:1043800081401E4D1F006963AA461D4D29601D4DC9
:104390002E78AC463500C5402F402B4209D1BFF3E3
:1043A0005F8F276088F31088E0BCBA46B146A84604
:1043B000F0BD5346144D5F6A83005D59AF420ED382
:1043C000124A8E439B5862461670BFF35F8F0022DD
:1043D000226088F31088002BE6D09847E4E70C4B66
:1043E00092009C46624413681360BFF35F8F002302
:1043F000236088F31088D7E7280100D000400540EB
:104400003C70054018380220043802206037022032
:10441000D03F054010B50100024A0348FFF7C8FA33
:1044200010BDC04630DB001016380220034B596A1D
:104430000A00986A596A8A42FAD1704700400540DA
:1044400070B504000D00124A536A1900966A536A47
:104450008B42FAD13000190024184D41AB4211D8DB
:104460000ED02B000A494A6A9A42FCD307D1084A67
:1044700002E0516A994202D1916AA142F9D370BD1A
:10448000A642EED9012301246442E5175B42E9E725
:104490000040054070B504000D00EFF3108672B6C1
:1044A0001A4A1368002BFCD0BFF35F8F002D1BD07E
:1044B0002000FFF7CBFA164981420AD02000FFF70F
:1044C000CDFA01212000FFF7AFFA0123A340114AE2
:1044D0001360114BA400E550BFF35F8F00220B4B1C
:1044E0001A6086F3108870BD0B4BA200D5500122D4
:1044F000A2400A4920000B7893430B700449FFF750
:10450000D7FA00212000FFF78FFAE5E7280100D055
:1045100059430010386005406037022018380220E7
:10452000F0B54F46D6464646C0B507002C4C616AEA
:104530000D00A66A616AA942FAD18B4208D805D05B
:104540000120E0BCBA46B146A846F0BDB242F7D958
:10455000EFF3108A72B6234801680029FCD0BFF33C
:104560005F8F0125BD4020491D4C8846097889464A
:104570002943C9B28C46414660460870391D1B4824
:10458000890065630A51B9000B50216A0020294255
:1045900019D0616A0800A66A616A8142FAD18B4229
:1045A00019D801D1B24216D8CC4516D00C4B1F20D9
:1045B0001D625D6301230740BB400D4A1E38136036
:1045C00043464A461A70BFF35F8F0022054B1A60BC
:1045D0008AF31088B5E70020F5E70120F3E7C0462D
:1045E00000400540280100D018380220043802207D
:1045F00080E200E0EFF3108C72B60A490B68002BE2
:10460000FCD0BFF35F8F01238340074A0748136242
:1046100002789A430270BFF35F8F00230B608CF324
:1046200010887047280100D000400540183802204B
:1046300070B5050014001600002915D00C00002AE2
:1046400012D080686B689847296800280ED07300E4
:104650009B196200033B1219CB18033A9C7088180F
:104660008A5C002A15D10670200070BD63001B19FA
:104670007200033B9219CB18033A9E7088188A5C2B
:10468000002A02D104703400EEE75A70047034003E
:10469000EAE75A700670E7E730B583600023CCB2D2
:1046A00043730133047342608373C4730D00006865
:1046B000012C06D9421C0133DBB2137003329C4239
:1046C000F9D1FF2129404B00591800234018033825
:1046D000437030BDF8B5CE46474606000C0080B5A5
:1046E000002907D04D0003686D18033D5A1957780B
:1046F000002F04D12000C0BCB946B046F8BD7900F7
:10470000C9190339884643445978894600215970AC
:10471000517073683A002100806898473368002818
:1047200014D042469A18947059195B5D002B00D042
:1047300053700F70270049463000FFF7CBFF390058
:1047400002003000FFF774FF0400D3E74246414601
:104750005D19AF709A185B5C002B00D06B70147001
:10476000E9E7C046F0B557464546DE464E46E0B559
:104770000D006B0001685B19DF1E0400C85D83B08B
:104780000192CA19002850D043001B18033BCB18D4
:104790005E78B446002E1AD1019E002E42D0E67BF0
:1047A000002E04D073009B19CB18033B5D70A37BD4
:1047B000002B00D1A573E57300282FD1002353707F
:1047C00003B0F0BCBB46B246A946A046F0BD72009D
:1047D0006244033A89184A78904600224A7091460A
:1047E0005A70010032002000FFF722FF4346824644
:1047F000002B07D05B0021684344033BCB185A7859
:10480000002A16D1424651462000FFF711FF2168C9
:10481000019BCA19002BC2D10028CFD043001B181E
:10482000033BCB1800219970C8E7019B002BB6D140
:10483000C4E7500080180338091848788346484672
:104840004870587041462000FFF7F2FE59468046F6
:104850002000FFF73FFF414602002000FFF7E8FE7F
:104860008046CFE7F0B557464546DE464E46E0B5B2
:1048700083B00191457B04006B0000685B19DF1E6B
:10488000C15DC219002952D04B005B18033BC3180D
:104890005E78B446002E1CD1019E002E44D0E67BEB
:1048A000002E04D073009B19C318033B5D70A37BDB
:1048B000002B00D1A573E573002931D10023280016
:1048C0005370617303B0F0BCBB46B246A946A04624
:1048D000F0BD72006244033A80184278904600228C
:1048E000427091465A7020003200FFF7A1FE434605
:1048F0008246002B07D05B0021684344033BCB1862
:104900005A78002A17D1424651462000FFF790FE00
:10491000019B01002068C219002BC0D10029CDD015
:104920004B005B18033BC31800209870C6E7019B3F
:10493000002BB4D1C2E7500080180338091848781A
:10494000834648464870587041462000FFF770FE85
:10495000594680462000FFF7BDFE41460200200078
:10496000FFF766FE8046CEE770B5040000292CD024
:10497000437B8B422ED00568480040180338281826
:104980008278002A21D053009B18033BEA5CEE1882
:104990008A4202D11BE0002A08D053009B18033B37
:1049A000EB185A788A42F6D142785A7000230122D5
:1049B000837043702000FFF7D5FE617B020020006A
:1049C000FFF736FE6073012000E0002070BD4378E1
:1049D0003370EBE701221900FFF7C4FE607301207A
:1049E000F4E7C04630B50C2083B000F0B3F9FEF711
:1049F000D7FF00280ED0994B994A1A605A609A60E6
:104A0000DA601A615A619A61DA611A62954A5A62E9
:104A100003B030BD944CA06700F0A4F90122934B81
:104A20001A60636C012BFCD10322914B1A608E4AF1
:104A3000936B012BFCD1013301218E4A8E480093E8
:104A4000043300F037F905238C4A009301218C4888
:104A500000F030F98B4B5A68FF2A02D880225200AE
:104A60005A6080227D4C824B21691201854D1A606B
:104A7000002907D0606901F0BDFD431C5800C01833
:104A80000338FDD2E0217F4B02201A6811408022BA
:104A900052012A4311601968484003210140116006
:104AA00004219A681142FCD08022802192012A437D
:104AB00009011160802252005A60734B2361734BCD
:104AC0005968FF2900D85A600321684A6F4B11606A
:104AD00002399A681142FCD0E0201A681040802206
:104AE00052011A4310601868484003210140022017
:104AF000116066498A681042FCD0802292011343FB
:104B0000802212011A608022614B52004A60636168
:104B1000604B5968FF2900D85A6080225E4BE169DA
:104B200012015C4D1A60002907D0606901F062FD36
:104B3000431C5800C0180338FDD2E02255490B68C9
:104B40001A4080235B012B431A60802380229B0143
:104B50002B4312011A608022414B52004A60E361EC
:104B60004E4B5968FF2900D85A6080224C4B216A6D
:104B700012014A4D1A60002907D0606901F03AFD20
:104B8000431C5800C0180338FDD2E02243490B688B
:104B90001A4080235B012B431A60802380229B01F3
:104BA0002B4312011A60802380225B004B602C4B48
:104BB000D20223623B4B5968914200D25A60802254
:104BC000394B616A1201374D1A60002907D06069BC
:104BD00001F010FD431C5800C0180338FDD2E0223C
:104BE00030490B681A4080235B012B431A608023F5
:104BF00080229B012B4312011A608023DB024B6051
:104C0000184B6362294B5A68FF2A02D8802252004F
:104C10005A608022264BA1691201244D1A60002996
:104C200007D0606901F0E6FC431C5800C018033847
:104C3000FDD2E0221D490B681A4080235B012B4303
:104C40001A60802380229B012B4312011A6080236B
:104C50005B004B600E4BA361DAE6C0467037022062
:104C6000006CDC021BB70000008000403CB000403C
:104C700030B00040002F685900800240008C864709
:104C800000C0024030800040001BB7003C80004064
:104C9000405973075480004054B000406080004089
:104CA00060B000406C8000406CB000404880004024
:104CB00048B00040F8B5040021481D0017000E0060
:104CC00001F098FC0100380001F094FC069B2904D7
:104CD0001B0319432368002B20DB1A4B1A4DE218E3
:104CE00053425A4180235B019C461203174B624496
:104CF0001A60174B1A601700AB689F43FBD1C022A4
:104D0000231D92011A4321232660A06013602368AB
:104D1000002BFCDA0823E1601360F8BD3F23226812
:104D20001340B342D9D1A3681B051B0D8342D4D1D4
:104D3000EE22E368D20213408B42CED1EDE7C046AB
:104D4000001BB7000040FDBF00C0004000E0004075
:104D500000F000408023024A9B000343D362704767
:104D600000800540AA23064A1B0113602F23054932
:104D7000D360054B19605368002BFCDA7047C046BE
:104D80000040024000B0FA00006002402C4B2D4A67
:104D900070B51A602C4A2D4B2D491A6014008B688F
:104DA0009C43FBD12B4D2C4EB54208D2013E761BC5
:104DB000B60808CD984723000134B342F9D1FFF774
:104DC00011FE264A214B1A60214A9368DB43DB011E
:104DD000DD09002BF9D14022214B224C224E9A674B
:104DE0005A671A67DA66B44208D223682000002B9B
:104DF00020D00834FEF7B6FFB442F6D31B4E1C4C4D
:104E0000C022A168300002F079FBA660FEF7F2FD37
:104E1000FEF780FFFFF744F9164C174EB44208D254
:104E2000013E361BB60808CC98472B0001359E4240
:104E3000F9D170BD0834FEF787FFB442D5D3DDE762
:104E400000E00040BFCDFBFEFE7F3C0000F00040D4
:104E500000C00040E80B0220F80B0220FFFFFF011A
:104E600000F00140E00B0220E80B022000000220CD
:104E700000ED00E0F80B0220FC0B022000BEFDE775
:104E8000094A03001068002805D00849C3188B425E
:104E900007D81360704706480449C31810608B4256
:104EA000F7D901204042F5E7E43702200000042052
:104EB0001C38022010B5FFF7E1FFC04610B50C000A
:104EC00082B01900002A0AD0064B0192009302001A
:104ED0002300054801F0F4FA0120FFF7CFFF034B50
:104EE0001A00F2E754DB001064DB0010B8D70010A2
:104EF0000FB400B5084883B002F032FC049B002BCD
:104F000007D005A91800019101F0FAFA034802F050
:104F100027FC0120FFF7B2FF94DB00105CD70010E4
:104F200010B50148FFF7E4FFA4DB00109A4200D25D
:104F3000885470477047C046F8B557464E464546B8
:104F4000DE46E0B599460A9B07009A460D9B8846C7
:104F5000934615000B9E9B0710D10C9B9E420DD2D1
:104F60009D1B14000E005D4422004B4601343100AD
:104F70002020B847A542F7D1B0460B9E002E27D07F
:104F8000444675195346AA1B013E985D21004B46C5
:104F9000B847002EF6D123002C0098460D9B9B07A6
:104FA0000FD55B46E51A0C9BAB420AD9464698469C
:104FB00022004B46310020200135B8470134A84576
:104FC000F6D82000F0BCBB46B246A946A046F8BDC4
:104FD0002C00E3E7F0B54F464646D646C0B584B050
:104FE00098460EAB1B78129F994694460D9C109BD9
:104FF000119EBA0725D4002E4BD19C4200D3BFE0AE
:1050000001223A4092461F2C00D9B8E00C9A551E56
:10501000302201E0202C03D001342A55A342F9D8D4
:105020005246002A0DD0A6420BD9202C44D00C9A0F
:10503000551E302201E0202C3ED001342A55B442C6
:10504000F9D1FA064DD57A053FD4002C39D10F9B02
:10505000102B00D179E00F9B022B00D18AE0302386
:105060000C9A012413704B46002B3FD02D230C9A31
:10507000135501340C9B62460093039743460296F6
:105080000194FFF759FF04B0E0BCBA46B146A84608
:10509000F0BD012215003D40AA463A422FD04A46B3
:1050A000002A02D10C323A4200D0013E9C42BAD2D0
:1050B0001F2CABD9202E27D92024FA06DAD57A0561
:1050C00003D4A3422DD0A6422BD00F9B102B32D05D
:1050D000022B20D0202CCDD030220C9B1B191A7013
:1050E0000134202CC6D04B46002BBFD17B070DD4FA
:1050F0003B07BFD520230C9A13550134BAE79C42D5
:105100009FD21F2C00D881E720249AE72B230C9AEA
:1051100013550134AEE7202CACD00C9B1B19013485
:105120003AE0631E012C92D00F9A102A2AD0022A4C
:105130002FD01C00D0E7BB060ED4202C9AD00C9B9D
:105140001A19013478231370C4E7BB060DD47823F1
:105150000C9A01241370BFE7202C00D18AE7582253
:105160000C9B1B191A700134B4E758230C9A0124C4
:105170001370B1E70C9A603301241370ACE720245C
:1051800000265EE7023CBA06E9D40C9A12191C000C
:10519000D8E70C9A9246534462221A709AE7C046A6
:1051A00010B5002800D110BD02F08EFAFBE7C04612
:1051B000F0B5DE4657464E464546E0B59BB09B46A9
:1051C000249B89469846259B0B900C92404642466C
:1051D00019009A4601F0DFFC002800D0D8E0012237
:1051E00040465146774B524201F0D0FC002800D097
:1051F000CEE0012240465146734B524201F0B0FCD2
:10520000002800D0C4E0002200234046514601F0AF
:10521000A7FC002800D0B9E1424653460A92099300
:105220008023289ADB001A400E92289A1A4201D154
:10523000062326930A9A099B1600134300D0C7E061
:10524000289B002500261B0500D49BE100230D931D
:10525000269A0D9B9A4200DC9FE1D01A431E2693AA
:105260008023289ADB001A430023002728920D93FD
:10527000279B0024BB4200D9DC1B0223289A1A403A
:105280000E92289A134203D07B427B415B421C4022
:105290000D9B002B07D00A9809992A00330001F0D2
:1052A000F6FB0A900991002200234046514601F086
:1052B00057FC002805D080200006844609996144E7
:1052C0000991289A414B0B9D13400493269B0A9AFF
:1052D0000293099B03940092019349465B46280080
:1052E0000C9A00F08BF90400002F62D0289B22005A
:1052F00098061F23C0179843631C984649465B468F
:105300006530A8470D9B0025DA179C18DB0F9A46DD
:105310005440013F01E0202D13D00AAA94461F23D8
:10532000200063440A2101355E1901F063F9303130
:10533000317020000A2101F05DF926000400092ED9
:10534000E9D805230693002304930A3303935346B5
:1053500005970B9F029312AB009342465B4649466A
:1053600038000195FFF736FE0E9B0400002B20D07D
:105370000C9BC51A279BAB421BD91E0022005B4623
:10538000494620200135B8470134AE42F6D810E036
:10539000289B42460493279B49460393269B0B98E0
:1053A00002935346009201935B460C9A00F026F953
:1053B000040020001BB0F0BCBB46B246A946A04684
:1053C000F0BDC046FFFFEF7FFFFFEFFFFFF7FFFFDE
:1053D000734B099F9C467800400D604401F0EEFB42
:1053E000704A714B01F071FB704A714B01F046FB42
:1053F0003B03704A1B0B1A4304000D0030001100E0
:105400006D4B002201F031FB6C4A6D4B01F05DFBEE
:1054100002000B002000290001F030FB01F0E6FB48
:105420000D9001F0CBFB674A674B04000D0001F0C3
:105430004CFB0022654B01F021FB01F0D7FB644AD5
:105440000600644B2000290001F03FFB04003000FF
:105450000D000F9601F0B2FB5F4A604B01F035FB87
:1054600002000B002000290001F0FFFA02000B00EF
:1054700006000F0001F029FB320004000D003B0084
:105480003000390001F0FAFA002210901191544BCB
:105490002000290001F0FBFA0022524B01F0EEFA45
:1054A00002000B002000290001F0F1FA00224E4B0F
:1054B00001F0E4FA02000B002000290001F0E7FAF5
:1054C0000D008021040032003B000020C90501F0DE
:1054D000CCFA02000B002000290001F0CFFA0200F4
:1054E0000B001098119901F0D2FA0022314B01F013
:1054F000C5FA3E4B0F9C9C4664440022230501F0F4
:10550000E4FA05000E0002000B000A98099901F068
:1055100027FB00280AD00D9B2800013B31000D938A
:105520000022304B01F0B3FA05000E00C6270D999A
:105530002B0063318F42BF4128997F420437090510
:1055400000D495E6334300D182E6099C284A210025
:10555000284B0A9801F012FB002808D000222100F5
:10556000254B0A9801F0FCFA002800D070E6269B33
:10557000002B00D17CE60E9B5A1E9341269AD31A2B
:10558000269375E6002304270D9371E643460A939C
:1055900080231B065344099342E6002326935FE6CB
:1055A00001FCFFFFFB799F501344D33FB3C8608BCE
:1055B000288AC63F0000F03F0000F83F61436F6358
:1055C000A787D23F71A379094F930A400000E03FBB
:1055D0001655B5BBB16B0240EF39FAFE422EE63FDD
:1055E00000002C400000244000001840FF03000091
:1055F0002D431CEBE2361A3F80842E41F0B54E4617
:10560000DE4657464546E0B597B09946209E219F15
:10561000229B8346984607910C923B003200300053
:10562000390001F0B8FA002800D0A9E101223000C9
:105630003900CA4B524201F093FA002800D0E1E051
:10564000012230003900C64B524201F09FFA002877
:1056500000D0B7E0002230003900C24B01F096FACA
:10566000002800D099E0002230003900BE4B01F044
:1056700077FA002800D090E00022002330003900A3
:1056800001F06EFA002800D0B1E000230D93249BB6
:105690005B0501D40623984608AB9C4617220024DC
:1056A00030234146624404E0013413550139202C73
:1056B00001D00929F8D888463000390001F096FA5F
:1056C0004346DA00A94B05009B181A685B680892EC
:1056D000099301F073FA02000B003000390001F069
:1056E000C4F9089A099B01F0F0F90A900B9101F0B6
:1056F000A1FA824601F05EFA02000B000A980B99AB
:1057000001F0B3F900229A4B0A900B9101F03EFA96
:10571000002800D1C0E001239C46E244504601F03D
:1057200049FA02000B000898099901F01FFA0028B5
:1057300002D000239A4601354346002B6AD008ABBD
:1057400017269C4608956644554614E001235B42A3
:1057500043440A2128009A4600F04CFF01343031BE
:105760003719397028000A2100F044FF092D00D8AC
:10577000D0E0D0460500202CE8D10EAB984603239C
:10578000249A1340012B00D196E02023249A019300
:105790000392239A434602921EE0249B58460493A8
:1057A000239B00960197039343460C9A0293079913
:1057B0004B46FFF7FDFC17B0F0BCBB46B246A9460E
:1057C000A046F0BD249B5B070ED40322694B2499AD
:1057D0000192039123990291009358464B460C9AEB
:1057E0000799FFF7A9FBE6E70422634BEFE73B00CD
:1057F00032000020002101F038F9012306000F00DB
:105800000D9344E7249B0393239B0293042301936A
:105810005A4BE1E7280001F0D1F902000B003000FB
:10582000390001F022F9524B002206000F0001F06E
:1058300097F90EAB984600280AD1002230003900B3
:105840004B4B01F0A3F9002802D1EB0700D501353D
:10585000202C94D008AA94461723280063440A21D8
:1058600001341E1900F09EFE3031280031700A21EB
:1058700000F098FE051EEBD10323249A1340012B60
:105880001BD0202C00D180E70D9B002B35D02D2282
:105890004146631C0A5579E700220A980B99344B5C
:1058A00001F05EF9002800D046E75346002B51D1A5
:1058B00001239C46E2443FE72024239B002BE0D0B9
:1058C0000D9B002B03D1249A0C33134202D0239B4F
:1058D000013B2393239BA342D3D908AB9C461722B9
:1058E00030236244202C00D14FE723990134135513
:1058F0008C42C6D0202CF8D147E7249B5B0724D4E8
:10590000249A2300120700D440E7202241460133A5
:105910000A553BE75746089D202C00D12DE7220071
:1059200030214046002F09D00132B154202A00D145
:1059300023E7D3431B191B18002BF5D10EAB984658
:105940002E234146541C8B5482E72B224146631C74
:105950000A551BE7DB0700D4EEE6A9E7FFFFEFFFE0
:10596000FFFFEF7F65CDCD4165CDCDC1A8DD001036
:105970000000E03FB0DB0010B4DB0010C0DB001023
:10598000249B0393239B029303230193004B23E760
:10599000BCDB0010F0B5DE464E4657464546E0B546
:1059A0009FB01C00289B91460993C94AC94B8B465E
:1059B00008901A60002900D118E2002320789A4646
:1059C000002800D11AE226001D005C460AE02A00E9
:1059D0006F1C4B46089D2100A8473D0001363078DA
:1059E000002870D02528F2D110239B46083B9A4608
:1059F000043B9846023B00219C46721C107816001E
:105A00000300203BDBB2102B03D8B34F9B00FB58A5
:105A10009F460300303B092B32D900230A932A28E2
:105A200068D0002398462E283ED00300683BDBB2A6
:105A3000122B1CD8A94A9B00D3589F460123013240
:105A40001943DBE7634601321943D7E74346013286
:105A50001943D3E75B4601321943CFE7534601327E
:105A60001943CBE780235B007078194301360300AC
:105A7000253BDBB2532BAAD8994A9B00D3589F46AB
:105A800000270300B800C01901364000C018337861
:105A900030381A00303A0700092AF3D90A90180062
:105AA000002398462E28C0D180237078DB0019434C
:105AB0000300303B721C092B00D8A1E12A2800D139
:105AC000B2E11600B1E7A346AA462C00D14503D89F
:105AD00001235B424B449A464B46524659460020AE
:105AE000089DA84720001FB0F0BCBB46B246A9469F
:105AF000A046F0BD099B40CB0A96002E03DB5078F0
:105B00000993561C8DE72838014370420A90099387
:105B10005078561C85E7782800D1DFE1582800D15D
:105B20004CE26F2800D14FE3622801D100F030FC35
:105B300010230A009A430B92692801D000F0A9FCB7
:105B40000A230C934B0500D5D0E10B9A802311005A
:105B50009B0019408B461A4200D0A1E2802311001D
:105B60005B0019408A461A4200D0B6E313005B0678
:105B700000D5EDE2130009991B0601D400F076FC74
:105B800008C91BB2D8171A18424092B2099193461D
:105B9000DA0F1292002B09D1802310220B99DB001F
:105BA0000B4091430B91002B00D0E4E20B9A612350
:105BB000920600D541230EA91F228C46DBB2624417
:105BC0000A3B5F461395A34655460C9CB2460D937F
:105BD00016000AE03033DBB201357355A74200D21C
:105BE000EDE2202D00D1EAE207002100380000F0AC
:105BF00001FDCBB20929EDD90D9A94466344DBB27D
:105C0000EAE780239B007078194301362FE770780C
:105C1000682800D1CDE180230136194327E7707849
:105C20006C2800D1BFE180235B00194301361EE7D9
:105C3000462800D19BE10722099B04910733934337
:105C40000A9A19000392424602920CC908980092DF
:105C5000019309912A004B462100FFF7CFFC013642
:105C60000500BCE62A006F1C4B46089D210025203C
:105C7000A84701363D00B2E68B0700D4ADE1099B91
:105C80002A009A466B1C9846534601CB21009A463F
:105C9000089F4B46C0B2B8470A9B9C466544012BFF
:105CA00000D886E2089B4746B04626004C469946F7
:105CB0003A002300013731002020C847AF42F7D116
:105CC000A1465346340046460993013687E6C0464E
:105CD00095590010E8370220C8DB00100CDC0010DA
:105CE00058DC0010099B04CB9B4643460992002BCD
:105CF00000D1C6E013789C46002B00D1BDE343469B
:105D0000013B099A0133D0180A9F130001E0834236
:105D100003D05A780133002AF9D1099A0A979B1ABD
:105D20000B9380230A00DB001A400C92194204D026
:105D30000B9B434501D943460B9302231A000A40AB
:105D40000D920B4200D187E16046002800D168E146
:105D50000C9B002B00D10DE1A844C246099B57467D
:105D60005B1B9846089BB2462A0026004C46994683
:105D700009E023003100551CC8474346585D002800
:105D800000D126E12A009742F3D1A1463D0034001C
:105D900056460D9B002B00D043E15B46013609932C
:105DA0001DE6099B1A0008CA9246002B48D0212202
:105DB00011438B460EA884461F2161440995002299
:105DC0000F27A4460D0002E0202A0CD00B003C0057
:105DD0001C4020003730092C00D807380132A85465
:105DE00019090F2BF0D86446099D32E0DC4B20786E
:105DF000089300239A46002800D0E4E5002465E6D5
:105E0000434606000A9F9800C018013240008019DE
:105E10001678030030003038303B0928F3D93000C1
:105E2000984616000A9700E6099B023604CB904676
:105E3000D2434046D2171040804609933078F4E5AB
:105E40001022080090431132104383460022490576
:105E5000B0D55B460693082305934346049310236D
:105E600003930023029316AB019200932A004B4642
:105E700021000898FFF7AEF8534605000136099354
:105E8000ADE513789C46002B00D1F7E202235B427C
:105E900037E7202302009A43472A04D180231B01BD
:105EA000194302239843452801D12023194307228F
:105EB000099B0491073393430A9A190003924246BF
:105EC00002920CC908980092019309912A004B464E
:105ED0002100FFF76DF90136050080E510230C93D2
:105EE0000C230A009A430B924B0503D501230B9A0E
:105EF0009A430B92692800D127E6642800D124E652
:105F00000B9A802311009B0019408B461A4200D047
:105F100066E1802311005B0019408A461A4200D0D6
:105F200039E213005B0600D53CE113001B0600D4E8
:105F3000A6E2099B04CB1204120C934609935B461C
:105F4000002B00D09AE10B9A1033110099430B916A
:105F5000520500D492E100239A460B9B06930A9BBC
:105F60000593434604930C9B039300230CE12023E9
:105F7000194360E6099B0A9A5B1B98464B4691467B
:105F80001F00B2462600089C2A003B003100A047B3
:105F900043460135585D0028F6D14A463400B946DB
:105FA00056460A92F5E6C0239B00B07819430236A4
:105FB0005DE5C023B0781943023658E50C230A008A
:105FC0009A4314331A43103B0B920C934B058DD418
:105FD00096E7A14634005646DBE60A9A012A00D825
:105FE00053E26B1E9F18089BB04626004C4699460C
:105FF0002A002300013531002020C847BD42F7D1D7
:10600000A14634004646099B3A0001CB2100984640
:106010007D1C4B46089FC0B2B847434601360993E2
:10602000DDE40B9B0A9AA8469A4200D8B5E694464E
:106030006544ED1A089B4746B04626004C469946F3
:106040003A002300013731002020C847AF42F7D182
:10605000A14634004646A0E60B9A0A99531C914289
:1060600000D814E24B199B1A1F00089BB246260069
:106070004C4699462A002300013531002020C847AC
:10608000BD42F7D10A9BA14601330B93099B340013
:106090001B7856469C466046002800D058E67CE6B1
:1060A0000722099B07339343013294469C4462467E
:1060B0005F6809921A68FB17109311931098119951
:1060C000030053400E930B007B400F9394460E9AAF
:1060D0000F9B121A8B410E920F93FB0F6246129385
:1060E00000233A439B463DD00B9A6123920600D58C
:1060F00041230022DBB20EA90A3B8C4692460D9347
:1061000043461F3262441395159655460E9E0F9FC7
:10611000A24690460C9C14930CE03032D2B2434617
:1061200001355A55BB4500D18AE1202D00D18AE1C5
:1061300006000F00220000233000390000F098FA1A
:10614000D2B2092AE9D90D9B9C466244D2B2E6E755
:10615000FF23099904C913401A00099117E5C046A5
:10616000354F00100B9A1033110099430B915205D3
:10617000BAD500239A460B9B06930A9B0593434688
:1061800004930C9B0393129B02935346019316AB0B
:106190002A00009321004B460898FEF71BFF0136AA
:1061A00005001CE4FF22099B02CB11408B4609939A
:1061B000C5E65346454609930136FFF710FC56469F
:1061C0005C46AA46139DD6E708230C930B910B99C6
:1061D000642800D084E60B9B5B0500D586E6B4E41A
:1061E0000722099B07339343013294469C4462463D
:1061F00009921A685B6810009B4613005A461343C5
:1062000007D10B9A1033110099430B91520500D519
:10621000A1E60B9A6123920600D541230022DBB24E
:106220000EA90A3B8C4692460D9343461F326244A8
:106230005F461295A34655460400B24690460C9E12
:1062400013930DE03032D2B2434601355A55002344
:10625000BB4200D100E1202D00D100E104000F007D
:10626000320000232000390000F002FAD2B2092ADD
:10627000E8D90D9B9C466244D2B2E5E70B9A6123B4
:10628000920600D54123DBB20EA90A3B1F228C46A1
:106290000D93230062445C461295170055469B46B9
:1062A000B2460C9E08E03033DBB201357B55B44278
:1062B0000ED3202D0CD004003100200000F09AF9FC
:1062C000CBB20929EFD90D9A94466344DBB2ECE7CF
:1062D00056465C46AA46129D3FE6099B1A0008CA2C
:1062E000D91713925A184A409246DA0F1292002B8D
:1062F00008D1802310220B99DB000B4091430B91B6
:10630000002B2BD10B9A6123920600D541230EAAB4
:106310001F279446DBB20A3B0D9567445D460993FF
:10632000A3465446B2460C9E08E03033DBB201353A
:106330007B55B4420ED3202D0CD004003100200038
:1063400000F058F9CBB20929EFD9099A9446634471
:10635000DBB2ECE756465C46AB460D9D0B9B2A0034
:1063600006930A9B21000593434604930C9B0898CF
:106370000393129B013602935B46019316AB009385
:106380004B46FEF727FE139B05000993FFF727FBFB
:1063900002230C931AE7099B04CB92461293002A1E
:1063A00008D1802310220B99DB000B4091430B9105
:1063B000002B2BD10B9A6123920600D541230EAA04
:1063C0001F279446DBB20A3B0D9567445D4609934F
:1063D000A3465446B2460C9E08E03033DBB201358A
:1063E0007B55B4420ED3202D0CD004003100200088
:1063F00000F000F9CBB20929EFD9099A9446634419
:10640000DBB2ECE756465C46AB460D9D0B9B2A0083
:1064100006930A9B21000593434604930C9B08981E
:106420000393002302935B46019316AB00934B4604
:10643000FEF7D0FD129B050009930136FFF7CFFA56
:10644000B44200D871E6149B54460E960F97AA46A4
:106450009846159E139D8EE6A64200D8FBE6139B38
:1064600056469846AA465C46129D76E508C9D81756
:106470001A1842400991FFF78AFB00230B9350E45E
:10648000099B04CB9346099359E52F00BBE50B9379
:1064900001E6063B0C939AE60EB4012210B585B0D6
:1064A00007AC08CC01000094524204480394FFF763
:1064B00071FA05B010BC08BC03B018472D4F00108E
:1064C0000FB410B50C4984B006AA08CA0C68039230
:1064D000002C0BD0009201220848524202A9A0478A
:1064E000012004B010BC08BC04B01847180001F02B
:1064F00037F90020F5E7C046E8370220A151001027
:1065000010B5094A0300146884B0002C08D0012299
:1065100000910648524203A9A047012004B010BDD3
:1065200001F01EF90020F9E7E8370220A151001020
:1065300001480421014B1847100202206165001038
:10654000142310B50100188804331B88984710BD28
:10655000162310B50100188802331B88984710BD18
:10656000F8B54746CE4680B50F1E19D0142399467C
:10657000043304000025012698464B4618884346FC
:1065800021681B88984701C4431E98410135404249
:106590000640AF42F1D13000C0BCB946B046F8BDAC
:1065A0000126F8E7124A936F9B0815D29066D166D0
:1065B000002905D0FFE7FFE7FFE7516F106F704735
:1065C00004B580210906C2175140002800D0C843F5
:1065D00006F076FF002104BDF0B5146E556E576FBE
:1065E000166FFFF7E3FF1466556657671667F0BD31
:1065F000000000D0114A936F9B0813D210665166B9
:10660000002905D0FFE7FFE7FFE7516F106F7047E4
:1066100004B5002801D00020C04306F051FF00213E
:1066200004BDC046F0B5146E556E576F166FFFF778
:10663000E5FF1466556657671667F0BD000000D089
:1066400094464A4A926F9208624601D228E0C046B8
:10665000F0B5464E346E756E776F366F00F020F8E9
:106660009446424A14665566576716676246F0BDFF
:1066700094463E4A926F9208624601D254E0C04668
:10668000F0B53A4E346E756E776F366F00F04CF899
:106690009446364A14665566576716676246F0BDDB
:1066A000002B24DB11D000293EDA00B5C94340425B
:1066B00000D1013100F038F8C943404200D1013126
:1066C000DB43524200D1013300BD002AEBD1002848
:1066D00001D1002905D00020C90FC90701D1C0434D
:1066E000410800B506F0E4FE0022002300BD00B51D
:1066F00000290ADBDB43524200D1013300F014F8D9
:10670000C943404200D1013100BDC943404200D1DC
:106710000131DB43524200D1013300F005F8DB4385
:10672000524200D1013300BD002923D1002B18D1E2
:10673000002A0CD0BC460D4F38667A660021002333
:10674000FFE7FFE7FFE77A6F386F6746704700287B
:1067500001D00748010000B506F0AAFE0022002380
:1067600000BD02000B00002000217047000000D097
:10677000FFFFFFFF002B00D0BFE0130C28D1002A41
:10678000E7D080B4114F39667A66FFE7FFE730B48F
:10679000040C7B6F396F1B0423433B667A66FFE76B
:1067A000FFE7FFE7C04684B27B6F3D6F1B042343C6
:1067B0003B667A66FFE7FFE7C04600232C042D0CFA
:1067C0007A6F386F00196941B0BC7047000000D083
:1067D000F0B594460025140E01D112020835140FAD
:1067E00001D112010435940F01D192000235D40F6A
:1067F00001D152000135D40B0134254F7C66254C64
:106800003C660E0C93B2FFE7FFE7FFE73C6F664381
:10681000360C7703BE467343DF0B5B04C01AB941E5
:10682000130C7343DB18C91ACE086643360CB64402
:1068300093B273431F0F1B01C01AB941130C73436A
:106840001F0B1B05C01AB941860D8F023E436643DC
:10685000360C092D24DB520A7243801A7703460A4C
:106860006643360C16235B1BDE40DF40BF196446CF
:106870006643821B7046043506330100D940A840A8
:10688000C01900D30131A24206D20023F0BD00009E
:10689000000000D0FFFFFFFF121B0130F3D3F1E730
:1068A00009277F1BFE406446A2B27243801A00D2C1
:1068B0000139220C7243130C1204821A99410B0005
:1068C0007046043513370100F940A840801900D301
:1068D0000131002B02D1A2420AD2F0BD013000D317
:1068E0000131121BFAD2013BF8D1A24200D2F0BD15
:1068F000013000D30131121BF7E7F0B51C0C00D0BA
:1069000080E00CB400251C0A04D11B02160E334390
:10691000120208351C0B04D11B01160F3343120160
:1069200004359C0B04D19B00960F33439200023533
:10693000DC0B02D192185B4101351C0097186441B1
:106940000134464F7C66464C3C660E0CFFE7FFE781
:10695000FFE7C0463C6F6643360C7703BE4697B2EE
:106960007743C01B00D20139C01B00D201399FB24E
:106970007743C91BC91B170C77437E04FF0B801B91
:10698000B941CE086643360C0C2D33DBB644120BEE
:106990001F053A431B0B97B27743C01B00D2013946
:1069A0009FB27743C91B170C77433E043F0C801BF3
:1069B000B941860D8F023E43664329277F1BFE4067
:1069C0000C3D7746AF40BF1930BCA2B2ABB27243A8
:1069D0007343801A9941220C7243130C1204801ADB
:1069E000994102000B000137001BA941F9D2781E22
:1069F0000021F0BD0C277F1BFE4077467F0BAF4088
:106A0000FF19E0E700245D1C07D0144F7D6639664E
:106A1000FFE7FFE7FFE7FFE73C6F95B29EB26543F4
:106A20006643401BB141150C1E0C6543664336049A
:106A30002F0C3E432D04401BB141994204D2020069
:106A40000B0020000021F0BD01D19042F7D3801A45
:106A5000994101349942F2D3F6E70000000000D0DA
:106A6000FFFFFFFF48404140484018B41B4B5B68A4
:106A7000FC46019308BD04DF9B6D001018B4174B52
:106A80001B68FC46019308BD00DFA56D001094460D
:106A9000134A926F920809D2624618B40F4BDB6812
:106AA000FC46019308BD0CDF5D7000100C4AF0B588
:106AB000146E556E576F166F6246FFF7EEFF084A69
:106AC0001466556657671667F0BD18B4034B9B688C
:106AD000FC46019308BD08DF016F0010C80D0220BD
:106AE000000000D0FFB550404240504059404B405C
:106AF000594000E0FFB5154F4C00640D03D0BC4277
:106B000004D10C0314D80020090D09055C00640DA4
:106B100003D0BC4204D11C030AD800221B0D1B0564
:106B200001264B4009D44B4003D58B4200D1824211
:106B3000FFBD9942FCD19042FFBD0B43DB180343DC
:106B40001343F5D0C9434918FFBD0000FF070000FB
:106B500000B5FFF7CFFF01D0002000BD012000BD30
:106B600000B5FFF7C7FF804100BDC04600B5FFF785
:106B7000C1FF01D9002000BD012000BD00B5FFF715
:106B8000B1FF01D9002000BD012000BD00B5FFF715
:106B9000A9FF804100BD012040054A00121804D819
:106BA0005A00121801D800207047012070470020B9
:106BB000704700000021002805D17047C1174840E8
:106BC000401AFAD0C90713B5064B1B6898470CBC8E
:106BD000441CA2401005120B0349091B0905194367
:106BE000114310BDFC3702201F04000010B54C00FB
:106BF000620D8023D218DB00D21A5B057E2A10DDDD
:106C00009E3A13DACC170903490819435242D1407E
:106C1000640001341532202A05DAD040084360436D
:106C200010BD002010BD0846604310BDC80FC0183D
:106C3000013810BD18B4044B5B6AFC46019308BDD3
:106C400024DF0D7200100000C80D022018B4044BA0
:106C5000DB6DFC46019308BD5CDF1973001000007A
:106C6000C80D0220C94211D300B5490049080022CD
:106C700000F018F8002904D4002240428A4111464D
:106C800000BD80210906002000BD000018B4044B9F
:106C9000DB6EFC46019308BD6CDF1B720010000028
:106CA000C80D022018B4044B9B6FFC46019308BD2D
:106CB00078DF377200100000C80D022018B4044BB2
:106CC000DB6FFC46019308BD7CDFA572001000005D
:106CD000C80D0220132370B51D78012D15D010DDCD
:106CE0001C48FFF735FC1C4C01008022200000F0FE
:106CF00005FC022D06D01948FFF722FC184B18603E
:106D000070BD154C174BA364F5E7164B124C23606E
:106D10006360A360E36023616361A361E361236255
:106D20006362A362E36223636363A363E363236435
:106D30006364A364E36423656365A365E365236615
:106D40006366A366E36623676367A367E367A36479
:106D5000D1E7C04653440000C80D02204C33000068
:106D6000FC370220696D001007B5604601880A0AE9
:106D70000230DF2AFAD1C9B2820804D302884088DF
:106D80000004104300E00068014A5050039007BD22
:106D9000C80D02200FB403BC0CBCF0B50124E407FD
:106DA000634000E0F0B50C0DCF0F661E3605891B61
:106DB000640503D3C943404200D30131640D03D0BD
:106DC000661CF60A07D0E41B00207F00791C8907A7
:106DD0008912803C24031D0DDF0F6E1E36059B1BA0
:106DE0006D0503D3DB43524200D301336D0D03D055
:106DF0006E1CF60A07D0ED1B00227F007B1C9B0750
:106E00009B12803D2D032F1B661B58D4A446202EB9
:106E100046DA20371400BC401D00BD40F24033412B
:106E20002A4380185941CB0F05D0C943C0430022E3
:106E300064425041514162464D0D28D10D0D07D19C
:106E400000281FD0241940414941013A0D0DF9D0C5
:106E5000640006D3013000D30131002C01D1400879
:106E60004000013A0BD4941CE40A04D112051144E9
:106E7000DB071944F0BDD907204B194300E0D907BF
:106E80000020F0BD0029DDD1002CDBD1F0BD0132A6
:106E9000C6074008CD0728434908002EE1D0D9E7AE
:106EA0003C2E29DA203E40371400BC4000D001249B
:106EB000F24014431A00BB401C43D317ACE7AC4666
:106EC000202F08DA20360400B4400D00B540F84009
:106ED00039412843A5E73C2F0CDA203F4036040017
:106EE000B44000D00124F84004430800B1400C43F2
:106EF000C117EAE710001900002494E70000F07FB2
:106F0000F0B50C0D661E3605891BE60A6405640D96
:106F100002D0651CED0A04D0002001210905803C47
:106F20002403A4461C0D671E3F05DB1BE70A64050E
:106F3000640D02D0651CED0A04D0002201231B055C
:106F4000803C24037740644497B484B296B274437F
:106F5000070C7E43150C6F4380B26843361802D38A
:106F6000012000043F183004350C00197D4184468F
:106F700088B29AB250430C0C62431F0C7C438EB211
:106F80007E43921902D301263604A4191604170C65
:106F90003618674101BC81B29AB25143040C624376
:106FA0001B0C5C4380B25843121802D3012000042A
:106FB00024181004130C401863412D185E41002062
:106FC000474106BC88B293B258430C0C6343120C81
:106FD000544389B251435B1802D301210904641858
:106FE00019041A0C091862416D18564100204741D6
:106FF00018BCF902720D1143F0026A0D1043ED0244
:107000000A0D03D16D1940414941013B124E9B1BB2
:107010007600B3420ED26D0007D3013000267141D5
:107020006646354301D1400840001B05C918E407F6
:107030002144F0BD0BDA013306D1013004D1013116
:107040004F0D01D04908F2E7E1070020F0BD0136FD
:1070500031050020EBE70000FF030000F0B51C0D38
:10706000671E3F05DB1BE70A6405640D02D0661C42
:10707000F60A04D0002201231B05803C2403D025FE
:107080002D060026F6432E661E096E66CE0FF619F3
:10709000B44649004F0D02D07E1CF60A03D00020F2
:1070A0000021403F3F033E1BB600B444013F7F0533
:1070B000C91B49082E6F013676089C02950D2543A1
:1070C0007543ED137543AD1301356D10F603761B53
:1070D0000CB4CC02450D2C43A2B2B3B25A43270CD8
:1070E0007B43350C6F43A4B26C431B1902D30124BC
:1070F00024043F191C041D0CA4187D4124196D4162
:10710000009A91B2ACB26143170C7C432B0C5F43E5
:1071100092B25A43A41802D301221204BF182204C7
:10712000230C52187B41019C6C431B19520ED90150
:107130000A434401A01A81B2B2B2514303145A4324
:10714000360C734387B27743D617D21900277E4196
:1071500036049B191704160C7F185E417316ED1840
:10716000F301002680337541A90F06D16400690A36
:10717000E8055B0A184309D22FE0042294448033C7
:107180007541A90AA8059B0A184326D340414941E5
:107190002404009A019B0D005543641B4343E41AE9
:1071A00095B286B27543170C7E43030C5F4392B2CF
:1071B0005A43B61802D301221204BF183204330C0A
:1071C00052197B4152429C41002C02D400220130D2
:1071D00051414008CA071043490802B06246D70728
:1071E0009210084BD218084B9A4203D21205891804
:1071F000C919F0BD0020002A01DC3900F0BD0133BF
:107200001905F5E7FD030000FE070000002200B5A8
:10721000203200F010F8080000BD002200B500F098
:107220000CF8CA179A4200D100BDD8430121C90702
:10723000414000BD00220B150AD410B5944600F061
:10724000A7F81414013400DA0021CB17144C20479E
:107250000020002170476244343A0CD40C2A07DA2B
:1072600004009140904052422032D440214310BD4E
:10727000D843D94310BD203207D40C469440524223
:1072800020321141D040204310BD0800C9172032E0
:1072900003D452422032104110BD1800190010BD15
:1072A000577200104A00520D144BD21A13DDFF2AF8
:1072B0001EDAD205CB0FDB071A43C300400F0903C8
:1072C000490A084310435B0001D301D001307047E5
:1072D0004308FBD2704702D0C80FC00770470A03AB
:1072E00012130132F8D1420F072AF5D1012200E032
:1072F000FF22C80F00028018C005704780030000FD
:1073000000210A00002104E000210A00C11704E066
:107310000022002306E0C0460022CB175840594007
:10732000C01A994130B5184CA21A002903D10100A6
:1073300010D00020203A4C1512D104D2013A001886
:1073400049414C0DFAD3114CA24204D212058918BE
:10735000DB07C91830BDD243520D00200021F5E7EC
:1073600003D4013A00184941FBD50B324405C00A49
:107370004D052843C90A640003D0002460416141DF
:10738000E1E7E0D34408F8E732040000FE0700001C
:107390000A0DCC0F531E1B05C91A520503D3C9434E
:1073A000404200D30131520D03D0531CDB0A07D0F9
:1073B000121B00206400611C89078912803A1203A5
:1073C000014BD21A70470000FF03000051434343B2
:1073D000C9188C46110C83B24B4310B4040C6143A2
:1073E00092B280B2504362431C041B0C001910BCC3
:1073F00059411304120CC0185141614470470000F8
:10740000132310B512481C78FFF7A2F80100012CD5
:107410000AD003DD80220F4800F070F80E48FFF715
:107420008FF80E4B186010BD0A4C5422200000F05B
:1074300065F80B4B6365A365E36523666366A36626
:10744000E36623676367A367E3672362E361E5E7B6
:1074500053460000C80E02204C330000FC370220C7
:107460006574001007B5604601880A0A0230DF2AF9
:10747000FAD1C9B2820804D30288408800041043BC
:1074800000E00068014A5050039007BDC80E02207A
:1074900010B5040000F088FA002804D0034B04194A
:1074A0009C4200D810BD0248FDF722FD00000420D8
:1074B000F8DD001010B50C0000F05CFD002804D0D1
:1074C000034B04199C4200D810BD0248FDF710FD83
:1074D00000000420F8DD001010B500F06FFA10BDB8
:1074E00001480421014B1847200202206165001069
:1074F000014B1B681847000020020220014B5B680B
:107500001847000020020220030010B508001100F7
:107510001B68984710BDC046F0B546464F46D64654
:10752000C0B5437D80460E001700002B46D0002AD0
:107530003FDD4B1E9946244B0125002400209A462E
:107540000DE04B461B5D0D3B5A425341325DDBB2B1
:107550000A2A0BD02B00013401359F421ADD002C82
:10756000EFD14346325D1B7D0A2AF3D1002BF1D1C6
:10757000A04204DA4346211A1B6830189847434654
:1075800050461B6802219847013428002B00013522
:107590009F42E4DC874204DD4346391A1B683018F9
:1075A0009847F619013E33780D3B5A425341424603
:1075B0001375E0BCBA46B146A846F0BD0368110099
:1075C00030009847F5E7C0469CDE0010F0B5DE4677
:1075D00057464E464546E0B585B017001C000600EC
:1075E0000D00FCF723FF0023304A12184B41002BFB
:1075F00058DB2F4908008A4605F06AFF01906B1C92
:1076000003D1300000F090FE0500002C25D1294B5D
:107610009846294B1C68002C15D0002F20D1274FED
:1076200002E02469002C0ED02368002BF9D03B68BF
:10763000002B01D0A342F4D120002A003100C04722
:107640002469002CF0D1019B002B27D105B0F0BCA0
:10765000BB46B246A946A046F0BD194B9846D8E7AE
:10766000164B994602ABDF1D0A239B4602E02469B4
:10767000002CE8D02368002BF9D04B461B68002B68
:1076800001D0A342F3D12A0031002000C0475B465D
:107690000122390020003B70C047E8E7504605F062
:1076A000FFFED3E70122074B5242A2E740420F0000
:1076B000E00B022019750010D8370220E0370220B5
:1076C00009750010FFFFFF7FF0B5CE46474680B535
:1076D00083B06B460600DD1D2870FCF7A7FE002373
:1076E0001A4A12184B41002B2BDB19490800884617
:1076F00005F0EEFE174B81461C68002C14D0164F87
:1077000002E02469002C0FD02368002BF9D03B68DD
:10771000002B01D0A342F4D1200001222900FFF761
:10772000FBFE2469002CEFD14B46002B05D1300025
:1077300003B0C0BCB946B046F0BD404605F0B0FE4F
:10774000F5E70122054B5242CFE7C04640420F0009
:10775000E00B0220D8370220E0370220FFFFFF7F36
:1077600070B5040000F0E0FD0023010005000122D7
:107770002000FFF72BFF084B1C68002C06D0636825
:10778000002B05D098472469002CF8D1280070BD43
:107790002469002CF3D1F9E7D8370220F0B5474629
:1077A000D64680B516000F0083B000282DD11C4BA3
:1077B0001C4D1A685B68019200931B4B9A461B4B49
:1077C000984653461C68002C03D114E02469002C11
:1077D00011D02B68002B01D0A342F7D1A368002B56
:1077E000F4D03100380098470028EFDD03B0C0BC6A
:1077F000BA46B046F0BD434600995B6A994209D843
:1078000042460198926A824202D301204042EDE74B
:107810009942FAD101200021FCF712FED1E7C046BF
:1078200028DB0010E0370220D83702200040054056
:10783000F0B54646D6464F460138C0B50D00160095
:1078400001283ED8FCF7F2FD00231F4A12184B41D5
:10785000002B32DB1D49B0460800894605F038FE92
:107860008246731C03D1280000F05EFD8046184B51
:107870001C68002C14D0174F02E02469002C0FD094
:107880002368002BF9D03B68002B01D0A342F4D130
:10789000200042462900FFF73FFE2469002CEFD16B
:1078A0005346002B05D13000E0BCBA46B146A8468D
:1078B000F0BD484605F0F4FDF5E70122064B5242C3
:1078C000C8E701267642EEE740420F00E00B0220B7
:1078D000D8370220E0370220FFFFFF7F012040421F
:1078E0007047C046012040427047C04601204042D8
:1078F0007047C0460300022200209A424041704770
:1079000070B50B0C0024150C002B28D1002D37D19D
:107910008BB291B2594300F05BF8051E19D00300F9
:10792000083B5A6803239A43043A242A13D80300D5
:10793000132A0AD90460446008331B2A05D98460DD
:10794000C460242A25D00300103300221A605A6034
:107950009A60280070BD0021FFF7CAFDF9E7002DED
:1079600011D1151C89B292B24A43ADB29BB26B439E
:10797000110C5B18190C06D1190492B21143CAE715
:107980002B1C0D1CEEE700F009F80C23002503600A
:10799000DFE70300046118334461D6E7014B186840
:1079A0007047C0463002022010B5034B0100186832
:1079B00000F00EF810BDC0463002022010B5034B97
:1079C0000100186802F0B2FA10BDC0463002022071
:1079D000F0B54E464546DE465746E0B50D000B3540
:1079E000060083B0162D22D8102900D9B2E000F08D
:1079F000B1FA102518230220CC4FFB181A005C683E
:107A0000083A944200D1B5E0032362689A43130018
:107A1000E268A168CA6091600122E31859683000E9
:107A20000A435A6000F09EFA2000083095E00723D0
:107A30009D4300D58EE0A94200D98BE000F08AFA80
:107A4000FC235B009D4200D2A7E1680A00D18BE0D5
:107A5000042800D97AE138239846A80980443930AF
:107A6000C100B24F79184C680839A1420ED00323E7
:107A70009C4604E0002ACBDAE468A14206D06246C4
:107A8000636893435A1B0F2AF4DD40463A003C6971
:107A90000832944200D178E0032361689943894613
:107AA0000B00491B0F2900DD7BE17A613A61002957
:107AB000B2DA80229200914500D30FE15909DA0829
:107AC00001238B40D2007968D2190B4391687B6007
:107AD000E260A1609460CC600121821091409942E3
:107AE00059D80B4205D103229043490004300B4280
:107AF000FBD003239846C3009946B944CC4682463E
:107B00006346DC68A44507D12CE1002A00DB35E19F
:107B1000E468A44500D125E14246636893435A1BBB
:107B20000F2AF2DD01208046611905436560A068D7
:107B3000E5680837C560A86040461043F960B96041
:107B40004860CF6030008F60E25000F00BFA2000F8
:107B5000083002E00C230020336003B0F0BCBB46C9
:107B6000B246A946A046F0BD80213F23402098465A
:107B7000890076E7DC680230A34200D044E73A008F
:107B80003C690832944200D086E701217B6882106C
:107B900091409942A5D90323BC6862689A439146F3
:107BA000954203D8531B0F2B00DD89E023004B4483
:107BB0005F4A01935F4B93461B681268EB180132D2
:107BC00000D13DE15C4A944663441B0B1B030093C8
:107BD0003000009900F084FB03008046013300D19F
:107BE000FAE0019B834200D9F4E0544B00981A005C
:107BF0009A46126803009446514663440B6001990B
:107C00001A00414500D151E15B461B68013300D1A8
:107C100056E1434601995B1A9A1853461A600723A6
:107C2000424641461A400192194200D112E108230E
:107C30009846881A424B0099804441449B1A5B1A2B
:107C40001B051B0D0091300019009B4600F048FBFE
:107C5000431C00D150E14346C01A03005B4400932B
:107C6000534652461B6801215B441360424640461E
:107C7000BA60009A0A434260BC4200D124E14A46FD
:107C80000F2A00D822E107200C3A824360680140A5
:107C9000052011436160A118486088600F2A00D94F
:107CA00035E142464446526826490868984200D267
:107CB0000B6025490868984200D38FE00B608DE087
:107CC0000122290013431143651961603000BD6032
:107CD0006B6000F047F9200008303EE75A0A042A9A
:107CE00072D9142A00D9C5E011005C325B31D20090
:107CF00008235B429C46BA18944463469A6803235F
:107D00009846944500D19EE04346516899434945C1
:107D100002D992689445F7D1D3689C467B68614646
:107D2000A260E1608C60D460D6E6C04660060220A6
:107D3000680A02205C3702200F1000002C37022056
:107D4000081000005437022058370220142852D956
:107D5000542800D996E06E239846280B80446F3053
:107D6000C1007EE608239B46073BDC449B46DA4481
:107D700043465246134200D0C2E64CE00122E318CB
:107D8000596830000A435A60E368A268D3609A6079
:107D900000F0E8F820000830DFE62B00E8080833A0
:107DA0002AE6012360191D43656078613861C2606D
:107DB00082601A004B460A4342603000E15000F0F6
:107DC000D1F820000830C8E69A091100393238315C
:107DD000D2008DE7BC4260D0BC68626803239A433E
:107DE000531B954202D80F2B00DD69E7300000F0ED
:107DF000B9F80020B1E65B23984680445C30C100AE
:107E00002FE608235B429C46E1444B469B680138C1
:107E10004B4500D098E043460342F2D17B688B4348
:107E20007B604900994200D9B5E6002904D1B2E649
:107E3000042294464900E2440B42F9D050465AE6E7
:107E400010330093C4E68910023B8B4079680B43E2
:107E50007B6064E7009B300043445B421B051B0DC5
:107E600019009B4600F03CFA431C00D0F3E60023C7
:107E70009B46F5E6542A2BD81A0B11006F326E314F
:107E8000D20035E7AA235B0098422BD8DD3B984609
:107E9000E80B80447830C100E3E52C4B009A9A4609
:107EA0001B689C46534662441A60ADE6090500D043
:107EB000AAE60200BC684A4401310A436260F3E664
:107EC0005B4642461A60AAE64446EDE641608DE70D
:107ED000AA2149008A4224D8DA0B1100783277317E
:107EE000D20005E71A4B984224D87C239846A80C68
:107EF00080447D30C100B4E5009A019B944642461F
:107F0000083B63449B1A009300239B46A8E621008C
:107F10003000083102F00AF85346BC681B686268FA
:107F2000C2E60B498A420BD89A0C11007D327C3193
:107F3000D200DDE6FE217E237F209846890090E571
:107F4000FE227E219200D3E67B686AE72C3702206E
:107F50005405000010B5024802F030F910BDC046CB
:107F60002037022010B5024802F02AF910BDC046A1
:107F700020370220030010B50A00034908681900E1
:107F800000F004F810BDC04630020220F0B557469C
:107F90004546DE464E46E0B50C000700904683B0ED
:107FA000002900D1A8E045460B35FFF7D3FF162D79
:107FB00070D810251023A84570D82600083E716897
:107FC00003220800904381460096984200DB77E048
:107FD000C24A301893469268824200D1CAE0426891
:107FE00001900092012292465046009A82430198E5
:107FF00094468346DC44624650465268024200D0B2
:1080000071E00320009ACB4682439446E3449B45AB
:1080100050DA52460A4211D103213268B21A92460E
:1080200052688A436146511849448B46994200DBA5
:1080300078E04A4493469A4200DB78E041463800B3
:10804000FFF7C6FC8046002820D07368B446009332
:1080500001230099020099430B00083A63449342BC
:1080600000D1F7E04A46043A242A00D9F7E0030099
:108070002100132A00D9C8E00A681A604A685A60C9
:108080008A689A602100380001F050FF3800FFF73D
:1080900069FF07E007239D432B1E8CDA0C233B600E
:1080A00000239846404603B0F0BCBB46B246A94602
:1080B000A046F0BDD946019AD3689268D3609A6011
:1080C0004B465B1B0F2B1CD801214A4673680B40A3
:1080D000134373604E447368194371603800FFF7AF
:1080E00041FFA046DEE70842A8D103213268B21A58
:1080F000924652688A439CE71100FFF769FC80466C
:10810000D0E701207268711902400343154375607E
:108110004B604E447368083118437060380001F0BA
:1081200005FFDBE7019AD3689268D3609A605346F3
:108130005246DB6892685646D3609A604A46043AD3
:108140000836242A6BD83300132A09D953462168EC
:1081500099606168D9601B2A00D98EE00834103319
:108160002268D9461A6062685A60A26834009A6030
:108170005646A5E75068032290430D328246944646
:10818000CA44AC44E24552DACA0700D556E7316822
:10819000721A0321924652688A431018010049441A
:1081A00000918C4500DD44E753465246DB689268F7
:1081B000D3609A6008234A465344043A9846242AD6
:1081C00075D8132A08D95346216899606168D96027
:1081D0001B2A71D80834103322681A6062685A600A
:1081E000A2689A60534659195B469960009B380013
:1081F0005A1B01231A434A605246526813401D43DA
:1082000053465D60FFF7AEFE4CE721680160616890
:1082100041601B2A27D82100083308312CE72100B0
:1082200030003400FAF7F6FFD946564648E75B4679
:108230000098A0464119996053465A1B01231A43DE
:108240004A6041680B401D43456038000091FFF7CC
:1082500089FE27E703225B689343994430E72100B6
:10826000FAF7D8FF0EE7A1688160E168C160242AAF
:108270000CD0210010331031FEE6A1681961E168CD
:108280005961242A0BD01034183369E72269210080
:10829000026102006069183118335061ECE622690E
:1082A0009A61524661692033D161183458E7210040
:1082B0001800FAF7AFFF95E7A1681961E168596105
:1082C000242A02D01034183386E722699A61524674
:1082D00061692033D16118347EE7C0466006022010
:1082E000002370B5064D040008002B60FCF7C8FDA4
:1082F000431C00D070BD2B68002BFBD02360F9E736
:10830000DC3702200FB400B5064983B004AB08681F
:1083100004CB4168019301F021FC03B008BC04B018
:108320001847C0463002022010B583070AD0030068
:10833000032102E001330B4205D01A78002AF9D15B
:10834000181A10BD030019680C4A0D4C8A188A438C
:1083500022420FD15968094A04338A188A432242BB
:1083600008D15968054A04338A188A432242F1D059
:1083700000E001331A78002AFBD1E1E7FFFEFEFEA0
:1083800080808080F0B5DE4657464E464546E0B5D3
:10839000724C8346A54402AF3B624B6E0E00140044
:1083A000DB0764D4B2890C23C95E93055CD58023B6
:1083B0009B011A4205D10B43726EB381684B134087
:1083C00073662378621C7B64FA63002B01D101F091
:1083D0007CFA00229246FA613A63BA63BA627A631F
:1083E0005A46D346924608210C005E4AD25C14409D
:1083F000114240D1252B14D1FB6B00251A780023A4
:1084000099468F339C468D3B9846FB6B591C130055
:10841000253BDBB2552B0FD853489B00C3589F46D2
:10842000F9637368002B00DC74E0FB6B3268013B7E
:1084300011781B78994246D0736EDB073CD53B6BB5
:10844000002B06D07B6B013346D03B6B1E68002EA1
:108450005CD1BD46786BAF239B009D44F0BCBB460E
:10846000B246A946A046F0BDB06D01F0A7FE0C23B0
:10847000F15EB2899BE708245D4673680BE03268C1
:1084800038491378CB5C1C420DD073680132013B34
:10849000013573603260002BF1DC3100504601F091
:1084A000DBFE0028EBD0AB46FA6B137801327B641D
:1084B000FA63002B97D1BFE7B3899B05BFD4B06D9A
:1084C00001F07EFEBBE773680132013B736001235C
:1084D0009C463260E344E7E73B6BDB889846002B21
:1084E00001D101F064F93B6B00241E68002399461A
:1084F000A500735901341868FEF7EEFF4A46735918
:108500001A60A045F4DC01235B427B633000FEF778
:10851000E3FF9EE73100504601F09EFE002800D1A7
:1085200083E77B6B002B03D0B3895B0600D483E722
:1085300001235B427B637FE763462B4200D07BE7EE
:108540004B469B004B445B009A1830235B42994694
:10855000FB6B9144F9635A7857E7C0463CFDFFFF37
:10856000FFDFFFFF9DE20010ACDE00100423F96383
:108570003B607368002B00DCF3E06B0600D4FAE08C
:108580003B68032B00D12EE1042B00D1C5E2012B67
:1085900000D183E2022B00D0DEE14B46002B01D15B
:1085A000013B994601231C002C402B4201D100F0D5
:1085B00077FD0F331A002A407A622B4201D001F076
:1085C000EBF82B0601D401F055F93C6A08CCFB62AC
:1085D000002B00D130E78020FEF75AFF80460028AC
:1085E000A6D0FB6A3A6B1860D58893889D4201D269
:1085F00000F003FFD34A93429AD808339BB23B6200
:1086000099003B6B1868B861FEF754FF00288FD0C3
:108610003B6B3A6A18609A803A6B6B1CD380FB6A9A
:10862000AD002B5043467B6120233C62BB61336825
:10863000C54A1B78D35C1B0701D500F0E2FF00247C
:1086400001F0ACFDA04200D16BE78C2140203368E3
:1086500049001A780918C91901330A55726833603C
:10866000BB6B013A651C7260032B01D101F0A6F8C7
:10867000102340229B18DC19082200212000FEF75D
:1086800037FF8C224021520052182B0041465046A1
:108690000094D21901F096FDB863421C00D140E766
:1086A000002801D001F09CF842461060002001F043
:1086B00063FD002801D000F093FFAB4401235B422F
:1086C0009C46E1447B6A002B01D001F08FF9043312
:1086D0009C46FB6AE044002B01D101F087F9434638
:1086E0007A6900259C1ABA69A310934201D301F05C
:1086F000ECF97368002B01DC01F07BF93368924AD6
:108700001B78D35C1B0701D500F07BFF4B46002B89
:1087100001D100F076FF2C0001F040FDA04294D181
:10872000FFE60F232B4200D086E643461D43FB6B3A
:10873000F9635A7869E60F232B4200D07CE6FB6B85
:10874000F9635A7861E680239B001D437F4BF963F0
:10875000FB611023BB620D3B3B607368002B00DDA7
:108760000BE73100504601F077FD002800D0D8E635
:108770006B0600D504E7326873491378CB5C1B079E
:1087800000D4FDE63B682100984653465C46AA4665
:108790008B461D0007E0013232606B491378CB5CD9
:1087A0000821194213D073680134013B7360002B18
:1087B000F1DC3100280001F04FFD002800D0B0E6C8
:1087C000326861491378CB5C08211942EBD14246EB
:1087D0005B463A602A00A3461C003B685546924619
:1087E000032B00D0D0E64B46AE220021013B5200C5
:1087F000F962934205D95D3BFF3BFB625E23FF3389
:108800009946D8231B011D4300233B601933FF33D6
:108810009C46D83B98460022B844C44463464C4624
:108820009046E146BB61326811780B002B3BDBB20E
:108830004D2B00D90BE346489B00C3589F460123AC
:108840001D4340231D430023F9633B6091E6012350
:108850001D433E4BF963FB610823BB62053B3B6054
:1088600087E601231D433B4BF963FB610A23BB628F
:10887000073B3B607DE60F232B4200D0DCE5FB6B22
:108880005A78682A01D100F0A7FC0423F9631D433C
:10889000BBE5F963EB0600D506E62B0701D400F033
:1088A000F3FF59463B6A04CB11703B62FCE5402262
:1088B00018239B18D81901F061FD40231D433F3B4D
:1088C000F8633B6055E601231D430133F9633B60C8
:1088D0004FE6882338E70223F9633B6049E60F231C
:1088E0002B4200D0A8E5FB6B5A7843466C2A01D195
:1088F00000F073FC0123F9631D4386E5634662467D
:108900002B402A4200D097E53A6B002A01D100F0B3
:1089100080FF80231D4312E70E4BF963FB610023A8
:10892000BB6203333B6024E6084BF9639DE74B468B
:108930002B43994600D07FE5FB6B10255A78F963ED
:1089400063E5C046F6FF00009DE2001075B8001018
:1089500004E0001071B500104B46FB62002B01D102
:108960000133FB62EB0700D4F8E210231A002A401F
:108970007A622B4201D000F001FF2B0601D400F0F7
:1089800067FF3C6A08CCBB61002B00D154E5802016
:10899000FEF77EFD8146002800D1C9E5BB693A6B30
:1089A0001860D58893889D4201D300F05BFC106865
:1089B0003A6B6B1CD380BB69AD002B504B463B61BF
:1089C00020233C627B618C23402200255B009B18A6
:1089D000DC1901F0E3FBA84200D1A2E533686A1C70
:1089E00090461A780133625572683360BB6B013A66
:1089F0007260032B01D100F048FD102340229B1828
:108A0000DD19082200212800FEF772FD43462200EE
:108A100049465046009501F0D5FBB863421C00D191
:108A20007FE5002801D000F044FD7B6A002B01D1D6
:108A30004A461360C344FB6A013BFB627B6A002B1E
:108A40000ED1BB69002B08D04B463A699D1A7A6952
:108A5000AB10934201D300F0A7FD04239C46E144F0
:108A600073680025002B01DC00F02CFDFB6A002B55
:108A7000AFD1BB69002B08D04B463A69991A7A6985
:108A80008B109A4201D900F0D7FF7B6A5A425341BA
:108A90007A6B94469C4463467B6305E54B46002B0A
:108AA00001D1013B9946EB0700D493E210231A0051
:108AB0002A407A612B4201D000F067FE2B0601D4D8
:108AC00000F0D0FE3C6A08CC3B61002B00D1B3E43F
:108AD0008020FEF7DDFC051E00D129E53B6918600A
